:1000000077C000009DC000009BC0000099C00000A8
:1000100097C0000095C0000093C0000091C0000090
:100020008FC000008DC000008BC0000089C00000A0
:1000300087C000000C94270D83C0000081C0000021
:100040007FC000007DC000000C94080A79C0000049
:1000500077C0000075C0000073C0000071C00000D0
:100060006FC000006DC0000007634236B79BD8A781
:100070001A39685618AEBAAB558C1D3CB7CC5763CD
:10008000BD6DEDFD753EF6177231BF000000803F7B
:1000900008000000BE922449123EABAAAA2ABECD97
:1000A000CCCC4C3E00000080BEABAAAAAA3E000009
:1000B0000000BF000000803F000000000008417801
:1000C000D3BB4387D1133D190E3CC3BD4282AD2B38
:1000D0003E68EC8276BED98FE1A93E4C80EFFFBE30
:1000E00001C4FF7F3F0000000000D008DB26242A67
:1000F00011241FBECFEFD8E0DEBFCDBF13E0A0E0DC
:10010000B1E0E2E1F3E602C005900D92AC32B10736
:10011000D9F727E0ACE2B3E001C01D92A132B207EB
:10012000E1F710E0C7E7D0E004C02197FE010E948C
:100130004D31C537D107C9F70E94A6100C947D3107
:100140005FCFCF93DF93DC01C62FD0E01C161D06D6
:100150004CF561E070E020E030E0A9014F5F5F4FB7
:10016000FD01E40FF51F80818C3299F04A3551056D
:1001700094F42E5F3F4FFD01E20FF31F9A0103C07D
:100180002A35310549F02F5F3F4F91919C32C1F7DD
:1001900003C09A0101C09A016F5F7F4FC617D7074E
:1001A000E4F602C020E030E0C9010196DF91CF9172
:1001B0000895A62FB72FE42FF52F90E030E08D9112
:1001C000811104C08081811105C007C02081821384
:1001D00001C03F5F9F5F3196F2CF41E050E0391799
:1001E00011F040E050E0CA010895CF92DF92EF9203
:1001F000FF920F931F93CF93DF937C018CE293E0E8
:100200000E948E2C8432D1F7670100E010E004C018
:100210008A35910591F18C018CE293E00E948E2C3D
:10022000C82FF60181936F01C8010196CC3281F786
:10023000F701E00FF11F10824FE051E0B701C70155
:10024000B8DF009731F52EC0CA3219F50DC08A32D9
:1002500069F08CE293E00E948E2C89930F5F1F4F10
:1002600009351105A1F702C000E010E0F701E00F29
:10027000F11F108281E090E015C0F701E00FF11F3F
:1002800010824FE051E0B701C70193DF0097E1F61C
:1002900009C08CE293E00E948E2CE701899301E073
:1002A00010E0D5CFDF91CF911F910F91FF90EF908C
:1002B000DF90CF9008950F931F93CF938C01CFE1E0
:1002C000C80193DF009719F4C150D1F702C081E053
:1002D00090E0CF911F910F910895CF93DF93EC01A0
:1002E00030DFFE01E80FF91F20812E32A1F08A35A0
:1002F00091059CF40196FE01E80FF91FAE01455AE5
:100300005F4F80E003C0E417F50741F08F5F219154
:100310002E32C9F703C080E001C080E090E0DF9199
:10032000CF910895CF93DF93EC010BDFFE01E80F2F
:10033000F91F20812C32A1F08A3591059CF4019699
:10034000FE01E80FF91FAE01455A5F4F80E003C080
:10035000E417F50741F08F5F21912C32C9F703C0F4
:1003600080E001C080E090E0DF91CF9108958F920E
:100370009F92AF92BF92CF92DF92EF92FF92CF9374
:10038000C62F2536310541055105F8F00F2EF4E64C
:10039000CF2ED12CE12CF12CF02DCC0CDD1CEE1C41
:1003A000FF1CD701C601880F991FAA1FBB1F880F0A
:1003B000991FAA1FBB1FC80ED91EEA1EFB1EC2161C
:1003C000D306E406F50648F307C00F2EF4E6CF2E59
:1003D000D12CE12CF12CF02DCA01B9010E949A2EEA
:1003E0004B015C01C701B6010E949A2E9B01AC0132
:1003F000C501B4010E94012E6B017C016C2F70E0DD
:1004000080E090E00E949C2EA70196010E949D2D05
:1004100020E030E040E752E40E94012E20E836E977
:1004200048E15BE40E942C2F0E946E2ECF91FF903A
:10043000EF90DF90CF90BF90AF909F908F900895F6
:10044000CF93DF93EC0161E07CDEC80FD91F81E020
:100450009881963509F480E0DF91CF9108958F92CD
:100460009F92AF92BF92CF92DF92EF92FF920F9343
:100470001F93CF93DF938C0164E063DE7C0164E023
:10048000C80150DFD82E64E0C80127DF9927F701A3
:10049000E80FF91F9F0122503109E216F3065CF5BF
:1004A0002AE5E216F10454F5D801AE0DBF1DAF01E7
:1004B00043505109400F511FB801665A7F4FC0E0A9
:1004C000D0E004C01196A617B707D1F09E01220F05
:1004D000331FCC0FDD1FCC0FDD1FCC0FDD1FC20F74
:1004E000D31F2C9130E020533109C20FD31FA41722
:1004F000B50741F705C0C0E0D0E002C0C0E0D0E0E1
:10050000D801A056BF4FCD93DC93DC011297AE0DFE
:10051000BF1DAE17BF0744F5AA35B10544F5A00FBE
:10052000B11FCF010197800F911FA801465A5F4F5D
:1005300060E070E004C01196A417B507D1F09B01EC
:10054000220F331F660F771F660F771F660F771F07
:10055000620F731F2C9130E020533109620F731F1B
:100560008A179B0741F705C060E070E002C060E0B9
:1005700070E0ED0CF11CCF0101968E159F050CF07B
:1005800059C0FC01E00FF11F81E0E81AF108C80131
:100590008E0D9F1D20E030E0A90109C03196203A60
:1005A000A6E83A07A1E04A07510508F046C049010C
:1005B0005A01880C991CAA1CBB1C75016401CC0C47
:1005C000DD1CEE1CFF1CCC0CDD1CEE1CFF1C8C0C7F
:1005D0009D1CAE1CBF1CC080D12C20E3C21AD108C8
:1005E0000D2C000CEE08FF08A7019601280D391DFF
:1005F0004A1D5B1D8E179F0789F61FC0A501940138
:100600000E942B31605DF70162937F01622F732F8F
:10061000842F952FEC15FD0589F727C0CE01B90170
:100620000E941831805D8293C62FD72FE017F10703
:10063000A9F725C020E030E0A901C80198DEF80143
:10064000EE55FF4F6083718382839383B29710824C
:100650007F016801F9E7CF0ED11C0F2EFAE08F2E33
:10066000912CA12CB12CF02DC9CFF801E858FF4FE7
:100670008EE280830B581F4F2AE030E0CFCFDF910E
:10068000CF911F910F91FF90EF90DF90CF90BF908F
:10069000AF909F908F9008956F927F928F929F92CC
:1006A000AF92BF92CF92DF92EF92FF920F931F9380
:1006B000CF93DF938C0162E044DD7C0162E0C801EE
:1006C00031DED82E62E0C80108DE9927F701E80F75
:1006D000F91F9F0122503109E216F3065CF52AE565
:1006E000E216F10454F5D801AE0DBF1DAF01435021
:1006F0005109400F511FB801665A7F4FC0E0D0E04A
:1007000004C01196A617B707D1F09E01220F331F20
:10071000CC0FDD1FCC0FDD1FCC0FDD1FC20FD31F91
:100720002C9130E020533109C20FD31FA417B50715
:1007300041F705C0C0E0D0E002C0C0E0D0E0D80181
:10074000A256BF4FCD93DC93DC011297AE0DBF1DB7
:10075000AE17BF0744F5AA35B10544F5A00FB11F88
:10076000CF010197800F911FA801465A5F4F60E0AB
:1007700070E004C01196A417B507D1F09B01220FB9
:10078000331F660F771F660F771F660F771F620F85
:10079000731F2C9130E020533109620F731F8A17A9
:1007A0009B0741F705C060E070E002C060E070E0C8
:1007B000CF010196ED0CF11C8E159F050CF065C064
:1007C0008A3591050CF065C0FC01E00FF11F81E056
:1007D000E81AF108C8018E0D9F1D3801AAE56A0EBE
:1007E000711C20E030E0A9010DC0203AA6E83A07CC
:1007F000A1E04A07510508F04FC031966E167F06FA
:1008000009F44AC049015A01880C991CAA1CBB1C56
:1008100075016401CC0CDD1CEE1CFF1CCC0CDD1C36
:10082000EE1CFF1C8C0C9D1CAE1CBF1CC080D12C70
:1008300020E3C21AD1080D2C000CEE08FF08A70116
:100840009601280D391D4A1D5B1D8E179F0769F6FD
:1008500023C0A50194010E942B31605DF7016293D2
:100860007F01622F732F842F952FCE16DF0689F715
:100870002BC0CE01B9010E941831805D8293C62F32
:10088000D72FE017F107A9F729C020E030E0A90130
:1008900003C020E030E0A901C80169DDF801EA5594
:1008A000FF4F6083718382839383F49710827F016B
:1008B0006801FBE6CF0ED11C0F2EFAE08F2E912C93
:1008C000A12CB12CF02DC5CFF801E659FF4F8EE2D7
:1008D000808309591F4F2AE030E0CBCFDF91CF91C1
:1008E0001F910F91FF90EF90DF90CF90BF90AF904E
:1008F0009F908F907F906F9008954F925F926F922C
:100900007F928F929F92AF92BF92CF92DF92EF929F
:10091000FF920F931F93CF93DF938C0166E011DC5E
:10092000EC0166E0C801D9DC7E01E80EF11CCE15B1
:10093000DF0584F5CA35D1058CF5C00FD11F81E0E4
:10094000E81AF108E00EF11E68018AE5C80ED11C14
:1009500060E070E0CB0104C02196CC15DD0509F103
:1009600020E030E040E251E40E942C2F4B015C017A
:10097000688170E060537109072E000C880B990B99
:100980000E949C2EA50194010E949D2DCE15DF058D
:1009900019F707C060E070E0CB0103C060E070E0D1
:1009A000CB012DEC3CEC4CEE5FE30E942C2F0E941F
:1009B000692E7B01F801E456FF4F71836083C1E02B
:1009C0002B01770F660877086C2F70E080E090E0CD
:1009D0000E949A2E9B01AC0160E070E080E291E4FD
:1009E0000E948F2F4B015C01C301B2010E949C2E1B
:1009F000A50194010E94282F181614F4CF5FE4CFAC
:100A0000F801EC0FF11DED59FF4F1082CC2391F04E
:100A10002AE030E0C150F801EC0FF11DED59FF4F15
:100A2000C701B9010E941831805D8083E62EF72E40
:100A3000C111F0CFDF91CF911F910F91FF90EF90F7
:100A4000DF90CF90BF90AF909F908F907F906F90EE
:100A50005F904F900895EF92FF920F931F93CF9363
:100A6000DF93EC0128DC892B99F1CE01E9DC8823A6
:100A700091F1CE01F4DCCE010FDECE013EDF7E012E
:100A800087E6E80EF11C8E010D571F4FB701C80114
:100A90000E947631F70101900020E9F73197EE19B5
:100AA000FF09EC0FFD1FED57FF4F8CE28083F7012C
:100AB00001900020E9F7BE016B587F4FCF018E19DE
:100AC0009F09800F911F0E947631802F912F05C0C2
:100AD00080E090E002C080E090E0DF91CF911F9134
:100AE0000F91FF90EF90089582569F4FFC018081F7
:100AF0009181089580569F4FFC01808191810895D6
:100B00008A559F4FFC016081718182819381089594
:100B10008E559F4FFC016081718182819381089580
:100B200084569F4FFC01808191810895CF93DF937C
:100B3000EC0182EA93E0D8DFFE01EE52FF4F918391
:100B4000808382EA93E0D6DFFE01E053FF4F91837A
:100B5000808382EA93E0D4DFFE01E453FF4F608399
:100B600071838283938382EA93E0D2DFC853DF4F9D
:100B7000688379838A839B83DF91CF910895CF9295
:100B8000DF92EF92FF92CF93DF93FC01EC52FF4F85
:100B9000208131812331310514F011821082FC0152
:100BA000EC52FF4F40815181DC01A453BF4FCD90E7
:100BB000DD90ED90FC909A01220F331F220F331F1E
:100BC000280F391FD901A852BF4FCD92DD92ED9267
:100BD000FC921397DC01A853BF4F8D919D910D900E
:100BE000BC91A02DE901CC5DDE4F88839983AA8357
:100BF000BB834F5F5F4F51834083DF91CF91FF9065
:100C0000EF90DF90CF9008950F931F93CF93DF93D2
:100C10008B012CE4269FE001279FD00D1124FE01BB
:100C2000E852FF4FE80FF91FC05EDE4FC80FD91F13
:100C3000A0E0B0E0419151916191719120813181A9
:100C4000421B530B9A0122F422273327241B350B16
:100C5000A20FB31FEC17FD0769F74CE4409F90010A
:100C6000419F300D1124820F931FFC01E852FF4F6A
:100C7000EC01C05EDE4F2081318188819981281B83
:100C8000390BC901992324F488279927821B930BD8
:100C90008A0F9B1F63E170E00E941831CB01DF9146
:100CA000CF911F910F910895EF92FF920F931F9391
:100CB000CF93DF939C0180916D03811128C0F901CE
:100CC000EC52FF4F40815181423151050CF1E90155
:100CD00060E070E0C90198DF8C017E0180E9E81ACC
:100CE0008EEFF80AF7011183008361E070E0CE0116
:100CF0008BDF800F911F99230CF4019695958795B2
:100D0000F7019183808381E080936D0301C081E0CE
:100D1000DF91CF911F910F91FF90EF9008950F9366
:100D20001F93CF93DF93EC0160E070E06DDF8C01E7
:100D300061E070E0CE0168DF800F911F99230CF411
:100D400001969C0135952795FE01E059FE4F808163
:100D50009181820F931FAC01992314F44F5F5F4F71
:100D600055954795C059DE4F59834883BC01992357
:100D700014F46D5F7F4F7595679575956795460F70
:100D8000571F421753071CF4822F932F02C080E095
:100D900090E0DF91CF911F910F910895CF92DF9254
:100DA000EF92FF920F931F93CF93452B09F4B6C098
:100DB00067347105D4F44091690350916A036091DE
:100DC0006B0370916C03411551056105710569F064
:100DD00000916503109166032091670330916803C9
:100DE000011511052105310529F41092640381E0F4
:100DF00090E041C1C0916303CD3308F078C0FC019D
:100E0000E059FE4F0190F081E02DDF01FF230CF44B
:100E10001196B595A795AE0FBF1FFC01E453FF4F88
:100E20000190F081E02D7F01E41AF50AB70122F468
:100E3000662777276E197F09A617B70794F0FC017C
:100E4000E853FF4F408151819A01201B310BA901CA
:100E500022F444275527421B530BA417B5070CF067
:100E600005C12091610330916203FC01EE52FF4FF6
:100E700040815181241B350BA90122F444275527B9
:100E8000421B530B42305105ACF4FC01E053FF4FC1
:100E900020915F033091600380819181A901481BFB
:100EA000590B9A0122F422273327241B350B2230B9
:100EB0003105BCF010925E03109264031092690336
:100EC00010926A0310926B0310926C0310926503E8
:100ED00010926603109267031092680381E090E01D
:100EE000CAC0CF5FC093630380E090E0C4C010929B
:100EF0005E03109264031092690310926A031092C9
:100F00006B0310926C0310926503109266031092AB
:100F100067031092680381E090E0ADC01092630314
:100F200020915E032111A5C0623071050CF081C0D3
:100F3000FC01EE52FF4F20813181309362032093F8
:100F400061033297208131813093600320935F03E6
:100F5000209164032B30C0F53497C0906903D09082
:100F60006A03E0906B03F0906C03408151816281D1
:100F700073814C0D5D1D6E1D7F1D40936903509361
:100F80006A0360936B0370936C033497409165031D
:100F9000509166036091670370916803808191812D
:100FA000A281B381840F951FA61FB71F809365038D
:100FB00090936603A0936703B09368032F5F209319
:100FC000640380E090E057C06091690370916A0308
:100FD00080916B0390916C030F2EFAE0CF2ED12CF1
:100FE000E12CF12CF02DA70196010E942B312093CA
:100FF000690330936A0340936B0350936C036091D1
:101000006503709166038091670390916803A7015F
:1010100096010E942B312093650330936603409321
:1010200067035093680381E080935E0380E090E063
:1010300022C010926203109261031092600310921A
:101040005F031092690310926A0310926B0310926F
:101050006C0310926503109266031092670310925E
:1010600068031092640380E090E005C080E090E0A7
:1010700002C080E090E0CF911F910F91FF90EF9020
:10108000DF90CF900895FC01E059FE4F118210824D
:10109000EC59F10911821082329711821082329735
:1010A0001182108234971082118212821382349737
:1010B00010821182128213820895EF92FF920F9391
:1010C0001F93CF93DF93CDB7DEB7C055D1090FB6CD
:1010D000F894DEBF0FBECDBF8C018DE1E5E1F1E0FC
:1010E0009E012F5F3F4F7901D90101900D928A95A2
:1010F000E1F782EA93E0AFDCF70101900020E9F725
:10110000BC01CF0101970E9476310E5C1F4FB701E1
:10111000C8010E947631C801C05BDF4F0FB6F8945A
:10112000DEBF0FBECDBFDF91CF911F910F91FF901A
:10113000EF9008950F931F93CF93DF93EC0182EA12
:1011400093E089DC892B31F182EA93E0E9DC8C01C0
:101150008330910534F041E050E0BC01CE011EDE49
:101160001AC0CE01E3DCCE010ADDCE019DDD88236D
:1011700051F0CE01D4DD892B31F041E050E0B801CF
:10118000CE010CDE08C040E050E0B801CE0106DE22
:1011900080E001C080E0DF91CF911F910F91089511
:1011A00060E875E28EE693E00C94F42C0895CF92FB
:1011B000DF92EF92FF920F931F93CF93DF93CDB700
:1011C000DEB72F970FB6F894DEBF0FBECDBF082F46
:1011D000192FF42ED82EC92E40E00E94782D6DE0F4
:1011E000802F912F0E94702DFF2009F48CC0FE01EA
:1011F00031968FE0DF011D928A95E9F7A1ECB0E00E
:101200008C918F778C937F0100E010E08D2D9C2DC9
:101210000E945B2D0F5F1F4FF70181937F018D2D82
:101220009C2D0E943A2D882309F46FC00E301105C1
:1012300069F77BC0A801112314F440E050E0552762
:10124000141615060CF053C002C04EE050E011E039
:1012500080E090E067E371E000E0E1E0F0E0EC0FB7
:10126000FD1FE80FF91F2081253461F4A2E3B1E0EE
:1012700031912D913213102FA617B707C9F7059694
:1012800011113DC00196841795073CF331E080E0D1
:1012900090E060E0E1E0F0E0EC0FFD1FE80FF91FE7
:1012A00020812F3461F4E2E0F0E0EC0FFD1FE80F45
:1012B000F91F20812B34B1F50296311122C001961D
:1012C000841795073CF389818E3399F0FE0132969D
:1012D00081E090E08C0F9D1F480F591F03C0819142
:1012E0008E3349F04E175F07D1F780E028C080E0C9
:1012F00026C081E024C081E022C080E020C080E0E0
:101300001EC081E01CC080E01AC0FE01E00FF11F8A
:101310001182E1ECF0E08081806880838981811115
:1013200089CFEBCF0296362FCACF1F86E1ECF0E0D3
:1013300080818068808389818823F9F286CF2F9607
:101340000FB6F894DEBF0FBECDBFDF91CF911F91D6
:101350000F91FF90EF90DF90CF900895BF92CF92C2
:10136000DF92EF92FF920F931F93CF93DF93E02EC4
:10137000F12C1E141F040CF03EC0FB01DB01A00F7A
:10138000B11D80819FEB980F903210F4805E8083B6
:101390003196EA17FB07A9F7FA01B08080E090E0E8
:1013A000DD24D394022F10E09A01200F311FC12CAD
:1013B000EC01FB01E80FF91FE081EB1116C01016DC
:1013C00011068CF40196DB01A80FB91FFA013196C2
:1013D00004C09D9181919813DC2C2E173F07C9F70B
:1013E000C8018C0F9D1FD11008C001968E159F0556
:1013F000FCF280E003C080E001C081E0DF91CF918A
:101400001F910F91FF90EF90DF90CF90BF900895C4
:101410001F920F920FB60F9211242F923F924F926C
:101420005F926F927F928F929F92AF92BF92CF9274
:10143000DF92EF92FF920F931F932F933F934F935F
:101440005F936F937F938F939F93AF93BF93EF932C
:10145000FF93CF93DF93CDB7DEB7CE54D109DEBF74
:10146000CDBFE1ECF0E080818F778083CE010196E3
:101470006C0100E010E001C087018DE494E00E945F
:101480005B2D78019FEFE91AF90AF60181936F014C
:101490008DE494E00E943A2D882309F461C2F1E3BF
:1014A000EF16F10449F798C2FF241E141F040CF034
:1014B00051C261E080E090E04CE351E070E0E1E097
:1014C000F0E0EC0FFD1FE80FF91F2081223561F4D9
:1014D000A8E3B1E031912D913213672FA417B5071E
:1014E000C9F70496611124C001968E159F053CF33F
:1014F00061E080E090E041E451E070E0E1E0F0E0A4
:10150000EC0FFD1FE80FF91F2081233461F4ADE3D8
:10151000B1E031912D913213672FA417B507C9F7A8
:101520000496611105C001968E159F053CF30AC013
:1015300081E08093530583E090E09093570580937A
:10154000560508C261E080E090E046E451E070E0BA
:10155000E1E0F0E0EC0FFD1FE80FF91F20812334DC
:1015600061F4A2E4B1E031912D913213672FA417F9
:10157000B507C9F70496611123C001968E159F0522
:101580003CF331E080E090E040E0E1E0F0E0EC0F9F
:10159000FD1FE80FF91F2081233569F4E2E0F0E038
:1015A000EC0FFD1FE80FF91F20812D3409F00EC24A
:1015B0000296311105C001968E159F0534F313C1B3
:1015C000BE016F5F7F4F8AEE94E00E947631EDEEB0
:1015D000F4E023E030E001C09C01C9010196419193
:1015E0004C3209F4C7C183369105B1F7C3C1AC01D0
:1015F000440F551F880F991F880F991F880F991F37
:10160000840F951F820F931F90934F0580934E0573
:1016100080914E0590914F05853191050CF4D9C00C
:101620000F2EFEE46F2EF5E07F2EF02D0F2EFDEC39
:101630003F2EF02D6E0123E3C20ED11C0F2EF1ECD4
:10164000AF2EB12CF02D212C0F2EF7E38F2EF1E0D1
:101650009F2EF02D0F2EFEE04F2EF02D512C9C01D1
:1016600021503109F301318320838A3078F49AE0E4
:10167000E7E4F1E0DE01AE5BBF4F01900D929A9579
:10168000E1F7805D2B968FAF2B971FC09BE0E1E5C4
:10169000F1E0DE01AE5BBF4F01900D929A95E1F74C
:1016A000839D912D112496959695969520E3290F6B
:1016B0002B962FAF2B97990F292F220F220F920FC6
:1016C000891B805D2C968FAF2C9740E0BE016E5B2E
:1016D0007F4F8DE494E00E94782D6DE08DE494E0DE
:1016E0000E94702D8FE0F60111928A95E9F7F501BD
:1016F00080818F778083760100E010E08DE494E0B4
:101700000E945B2D0F5F1F4FF70181937F018DE4D6
:1017100094E00E943A2D882309F442C10E3011054D
:1017200069F75FC19801112314F420E0322D3327AB
:10173000121613060CF046C002C0242D352D61E0B0
:1017400080E090E070E0F601E80FF91F4081453439
:1017500061F4A2E3B1E051914D915413672F8A16C1
:101760009B06C9F7059661112DC001968217930754
:1017700054F351E080E090E060E0F601E80FF91FDB
:1017800040814F3469F4E4E3F0E0EC0FFD1FE80F13
:10179000F91F40814B3409F01CC10296511112C04F
:1017A0000196821793074CF38BA98E3359F0FE01F3
:1017B000F4962C0D3D1D03C081918E3319F02E1728
:1017C0003F07D1F7F301808191818130910509F0C4
:1017D00046CF81E08093530584E090E090935705D5
:1017E00080935605B7C061E080E090E042E651E0AA
:1017F00070E0E1E0F0E0EC0FFD1FE80FF91F208141
:101800002B3261F4ACE5B1E031912D913213672FA9
:10181000A417B507C9F70696611124C001968E1565
:101820009F053CF361E080E090E042E651E070E02B
:10183000E1E0F0E0EC0FFD1FE80FF91F20812334F9
:1018400061F4ADE5B1E031912D913213672FA4170A
:10185000B507C9F70596611105C001968E159F055C
:101860003CF30EC085E090E09093570580935605B9
:1018700081E08093530510925405109250056AC080
:1018800061E080E090E047E651E070E0E1E0F0E008
:10189000EC0FFD1FE80FF91F2081233461F4A3E64C
:1018A000B1E031912D913213672FA417B507C9F715
:1018B0000496611124C001968E159F053CF361E0EA
:1018C00080E090E04CE651E070E0E1E0F0E0EC0F09
:1018D000FD1FE80FF91F2081233461F4A8E6B1E071
:1018E00031912D913213672F4A175B07C9F7049680
:1018F000611105C001968E159F053CF30AC086E074
:1019000090E0909357058093560581E080935305AE
:1019100021C061E020E030E046E751E070E0A1E066
:10192000B0E0AC0FBD1FA20FB31F8C91833469F4DC
:10193000EDE6F1E09D9181919813672F4E175F07B7
:10194000C9F7275F3F4F611137C02F5F3F4F2E15FB
:101950003F052CF3E1ECF0E08081806880834DC08E
:10196000FE01E00FF11F1382F2E0EF16F1040CF01C
:101970009BCDF0CFFC01E651FB4F808190E0C097FA
:1019800090934F0580934E05F901E451FB4F208160
:1019900030E0205331092A30310508F428CE38CE02
:1019A000F601E00FF11F1082F501808180688083CD
:1019B0008BA98111B7CE06CF87E090E090935705B1
:1019C0008093560581E080935305C4CF0296342F4F
:1019D000F2CD0296562FE4CEFE01E00FF11F1382E6
:1019E00063CD22961FAE2297F501808180688083A7
:1019F0008BA9882309F4E6CEA0CEC25BDF4F0FB6D9
:101A0000F894DEBF0FBECDBFDF91CF91FF91EF9174
:101A1000BF91AF919F918F917F916F915F914F9106
:101A20003F912F911F910F91FF90EF90DF90CF90FA
:101A3000BF90AF909F908F907F906F905F904F90EE
:101A40003F902F900F900FBE0F901F9018951F92F0
:101A50000F920FB60F9211242F923F924F925F92E6
:101A60006F927F928F929F92AF92BF92CF92DF92AE
:101A7000EF92FF920F931F932F933F934F935F9398
:101A80006F937F938F939F93AF93BF93EF93FF9346
:101A9000CF93DF93CDB7DEB7CF55D109DEBFCDBF32
:101AA00081E090E0909385008093840080915405BC
:101AB000882309F1809150058D30D0F0E2E5F5E002
:101AC00080818F5F8083109250058330A0F05D98F5
:101AD0002FEF83ED90E3215080409040E1F700C06C
:101AE00000005D9A81E0809355051092520508C070
:101AF0008F5F8093500580915505882309F470C24B
:101B000080915105833008F468C2109251051092FB
:101B1000550560E875E28DE494E00E94CD2CFE014D
:101B2000EF5AFF4F1FE0DF01212F1D922A95E9F7A1
:101B300081E4808384E581838BE2828393E49383D1
:101B400083E58483958386839DE3978392E29087E0
:101B500027E4218782878DE48387948740E0BF0153
:101B60008DE494E00E94782D6DE08DE494E00E9475
:101B7000702DFE013196DF011D921A95E9F7A1EC57
:101B8000B0E08C918F778C937F0100E010E08DE4C2
:101B900094E00E945B2D0F5F1F4FF70181937F013F
:101BA0008DE494E00E943A2D882309F43FC20E3060
:101BB000110569F780C2A801112314F440E050E038
:101BC0005527141615060CF052C002C04EE050E026
:101BD00011E080E090E067E371E000E0E1E0F0E038
:101BE000EC0FFD1FE80FF91F2081253461F4A2E3FB
:101BF000B1E031912D913213102F6A177B07C9F78D
:101C00000596111134C00196841795073CF331E015
:101C100080E090E060E0E1E0F0E0EC0FFD1FE80F15
:101C2000F91F20812F3469F4E2E0F0E0EC0FFD1F92
:101C3000E80FF91F20812B3409F034C202963111CC
:101C400016C001968417950734F389818E3379F095
:101C5000FE01329681E090E08C0F9D1F480F591FC6
:101C600003C081918E3319F04E175F07D1F740E022
:101C700067E771E08DE494E00E94782D6DE08DE4DB
:101C800094E00E94702DFE0131968FE0DF011D92DD
:101C90008A95E9F7A1ECB0E08C918F778C937F0166
:101CA00000E010E08DE494E00E945B2D0F5F1F4F79
:101CB000F70181937F018DE494E00E943A2D8823FF
:101CC00009F4C1C10E30110569F700C2A801112342
:101CD00014F440E050E05527141615060CF052C0DD
:101CE00002C04EE050E011E080E090E067E371E078
:101CF00000E0E1E0F0E0EC0FFD1FE80FF91F2081AC
:101D0000253461F4A2E3B1E031912D913213102F0B
:101D1000A617B707C9F70596111134C001968417A5
:101D200095073CF331E080E090E060E0E1E0F0E036
:101D3000EC0FFD1FE80FF91F20812F3469F4E2E05A
:101D4000F0E0EC0FFD1FE80FF91F20812B3409F0A4
:101D5000ACC10296311116C001968417950734F371
:101D600089818E3379F0FE01329681E090E08C0F0C
:101D70009D1F480F591F03C081918E3319F04E17D4
:101D80005F07D1F740E061E871E08DE494E00E94E4
:101D9000782D6DE08DE494E00E94702DFE01319667
:101DA0008FE0DF011D928A95E9F7A1ECB0E08C91FC
:101DB0008F778C937F0100E010E08DE494E00E9427
:101DC0005B2D0F5F1F4FF70181937F018DE494E03E
:101DD0000E943A2D882309F443C10E30110569F79A
:101DE00080C1A801112314F440E050E055271416D7
:101DF00015060CF052C002C04EE050E011E080E049
:101E000090E067E371E000E0E1E0F0E0EC0FFD1F3F
:101E1000E80FF91F2081253461F4A2E3B1E031918C
:101E20002D913213102F6A177B07C9F705961111F0
:101E300034C00196841795073CF331E080E090E0D0
:101E400060E0E1E0F0E0EC0FFD1FE80FF91F2081FA
:101E50002F3469F4E2E0F0E0EC0FFD1FE80FF91F0A
:101E600020812B3409F024C10296311116C001964D
:101E70008417950734F389818E3379F0FE01329609
:101E800081E090E08C0F9D1F480F591F03C0819186
:101E90008E3319F04E175F07D1F7FE01EE5BFF4F4F
:101EA0008FE0DF011D928A95E9F70F2EFCE86F2E77
:101EB000F4E07F2EF02D0F2EF1E33F2EF02D0F2EAC
:101EC000F3E02F2EF02D2E01BFE34B0E511CE154F9
:101ED000F1094F010F2EF1ECAF2EB12CF02D6E0158
:101EE000F2E3CF0ED11C8CE0E0E0F1E0DE01D3960E
:101EF00001900D928A95E1F7D201E22D1D92EA95AB
:101F0000E9F7D401E2E31D92EA95E9F7D5018C9156
:101F10008F778C933BAE40E0BE016D5C7F4F8DE4CC
:101F200094E00E94782D740100E010E08DE494E0CC
:101F30000E945B2D0F5F1F4FF70181937F018DE49E
:101F400094E00E943A2D882309F497C001331105CB
:101F500069F793C08191823209F49DC0CE16DF06E5
:101F6000C9F728C08191823221F0EC15FD05D1F727
:101F700021C08981803371F0FE01329660E070E00B
:101F800003C06F30710541F06F5F7F4F81918033E7
:101F9000C1F702C060E070E0EBE0F0E0EC0FFD1F85
:101FA000E60FF71F1082680D791DCE018E5B9F4FE3
:101FB0000E94763123968FAD2397882331F0BE019E
:101FC0006E5B7F4FC3010E9476313394FBE06F0E4E
:101FD000711C24E3321287CF03C08F5F80935105B9
:101FE0008091E706882379F08091EB06893740F0ED
:101FF00081E08093E9061092E7061092EB0603C099
:102000008F5F8093EB068091E806882309F474C003
:102010008091EC06873030F081E08093EA061092E0
:10202000EC066AC08F5F8093EC0666C0FE01E00F8D
:10203000F11F1182E1ECF0E080818068808389816A
:102040008111B9CD14CEFE01E00FF11F1182E1EC38
:10205000F0E08081806880838981811137CE92CEC3
:10206000FE01E00FF11F1182E1ECF0E08081806859
:10207000808389818111B5CE10CFF401E00FF11F6B
:102080001082D5018C9180688C938981823219F0FD
:10209000FE0132965FCF8889823209F46ACFFE0151
:1020A000719660CF0296362FCCCD0296362F54CE45
:1020B0000296362FDCCE1F86E1ECF0E0808180684E
:1020C00080838981882309F4D2CD80CD1F86E1ECFD
:1020D000F0E08081806880838981882309F452CE72
:1020E00000CE1F86E1ECF0E08081806880838981EA
:1020F000882309F4D2CE80CEC15ADF4F0FB6F894B0
:10210000DEBF0FBECDBFDF91CF91FF91EF91BF91A9
:10211000AF919F918F917F916F915F914F913F917F
:102120002F911F910F91FF90EF90DF90CF90BF9074
:10213000AF909F908F907F906F905F904F903F9067
:102140002F900F900FBE0F901F901895CF93DF9395
:10215000CDB7DEB7C95ED1090FB6F894DEBF0FBEAA
:10216000CDBF789460E875E28DEE96E00E94CD2CAC
:10217000E1ECF0E08081806880835E0125E7A20EBB
:10218000B11C7E0137EAE30EF11CCA51DF4FE88231
:10219000C65ED040C951DF4FF882C75ED0404E01C5
:1021A00087EB880E911CD4011C96C851DF4FB98370
:1021B000A883C85ED0401501B1E32B0E311C0F2E51
:1021C000F6E64F2E512CF02D4C0E5D1EEAE04E0E21
:1021D000511CE1ECF0E08081806880838091E90609
:1021E000882319F081E08093E3068091E406882338
:1021F00009F475C18091E606882309F49BC081E447
:1022000094E5D50111969C938E9384E490E0139607
:102210009C938E9312976CE874E0C50103960E941C
:1022200076318BE3F5018587168640E0B5018DE4B4
:1022300094E00E94782D6DE08DE494E00E94702D72
:102240008FE0D7011D928A95E9F7E1ECF0E08081FB
:102250008F778083670100E010E08DE494E00E94B6
:102260005B2D0F5F1F4FF60181936F018DE494E0AA
:102270000E943A2D882311F40C9435220E3011055A
:1022800061F70C94FD259801112314F420E030E04F
:102290003327121613060CF022C102C02EE030E0E4
:1022A00061E080E090E047E351E070E0F701E80F83
:1022B000F91FA081A53461F4A2E3B1E001911D9161
:1022C0000113672F4A175B07C9F70596611107C10C
:1022D00001968217930754F351E080E090E060E0AC
:1022E000F701E80FF91F40814F3471F4E8EAF0E09C
:1022F000EC0FFD1FE80FF91F40814B3411F00C94D7
:102300000F2502965111EBC001968217930744F3F3
:10231000D7018C918E3309F4E2C0F70131962E0D6E
:102320003F1D04C081918E3309F4D9C02E173F0799
:10233000C9F7D5C08091EA06882309F4D0C088E5A2
:1023400095E00E945D083C0180918C04882309F48B
:10235000C4C0BFEFE0E7F2E0B150E040F040E1F789
:1023600000C0000089E0EDE8F1E0D50101900D9298
:102370008A95E1F76CE874E0C50109960E94763110
:1023800082E2D50153968C93539718968C931897A5
:1023900054961C9240E0B5018DE494E00E94782DA3
:1023A0006DE08DE494E00E94702D8FE0F7011192B2
:1023B0008A95E9F7E1ECF0E080818F77808367010F
:1023C00000E010E08DE494E00E945B2D0F5F1F4F52
:1023D000D6018D936D018DE494E00E943A2D8823FF
:1023E00011F40C9445220E30110561F70C940C2663
:1023F0009801112314F420E030E03327121613065D
:102400000CF049C002C02EE030E061E080E090E0D6
:1024100047E351E070E0F701E80FF91FA081A53410
:1024200061F4A2E3B1E001911D910113672F4A17F6
:102430005B07C9F7059661112EC0019682179307B5
:1024400054F351E080E090E060E0F701E80FF91FFD
:1024500040814F3471F4E8EAF0E0EC0FFD1FE80F23
:10246000F91F40814B3411F00C9413250296511141
:1024700012C001968217930744F3F70180818E33CF
:1024800051F031962E0D3F1D03C081918E3319F00E
:102490002E173F07D1F740E066E971E08DE494E044
:1024A0000E94782D6114710459F06DE08DE494E080
:1024B0000E94702D40E0B3018DE494E00E94782DDD
:1024C0006AE18DE494E00E94702D6DE08DE494E06B
:1024D0000E94702D81E0809354051092EA068CECE6
:1024E00096E00E94042C8823D9F08091DE06882390
:1024F00051F080914C04823018F010924C0403C0CB
:102500008F5F80934C046CED76E08CEC96E00E943B
:102510007B2CDC0115968C91803111F41092E3062E
:1025200080915605909157058430910511F00C94D7
:102530004D211092570510925605E1ECF0E0808194
:102540008F77808380914E0590914F058A30910559
:1025500064F49AE0EEEAF1E0D50101900D929A95CB
:10256000E1F7805DF501808714C02BE0E8EBF1E036
:10257000D50101900D922A95E1F76AE070E00E9482
:102580001831605DD50118966C931897805D199687
:102590008C9340E0B5018DE494E00E94782D6DE0CD
:1025A0008DE494E00E94702DFE013196CE51DF4FF4
:1025B000F983E883C25ED0406F0100E010E08DE453
:1025C00094E00E945B2D0F5F1F4FD6018D936D012C
:1025D0008DE494E00E943A2D882311F40C94552246
:1025E0000436110561F70C941B269B85923279F015
:1025F000FE013C969E01200F311F255F3F4F03C017
:102600008191823221F0E217F307D1F752C09B3259
:1026100079F0FE013C969E01200F311F255F3F4F50
:1026200003C081918B3251F02E173F07D1F741C083
:102630000F2EFAE0CF2ED12CF02D05C00F2EFAE090
:10264000CF2ED12CF02DC6010196E1E0F0E0EC0F89
:10265000FD1FE80FF91F2081223271F4B2E0CB0E8A
:10266000D11CE1E0F0E0EC0FFD1FEC0DFD1D8081C1
:102670008B3219F40C9417256C01E4E6CE16D104C4
:1026800014F30C941725F601319621E030E02C0F5D
:102690003D1FE20FF31FC8018C0D9D1D820F931F7C
:1026A00003C021912A3059F0E817F907D1F70C94AB
:1026B0006522E1ECF0E0808180688083E1C03FEF3B
:1026C000C31AD30A8D918A3011F40C94222684E621
:1026D000C816D104A4F30C942226F6013196A1E089
:1026E000B0E0AC0FBD1FEA0FFB1F0C0D1D1D0A0F44
:1026F0001B1F03C081918A3029F0E017F107D1F741
:102700000C946C22F301BFEFCB1ADB0A81918A3063
:1027100011F40C94732224E6C216D104A4F30C9491
:1027200073229AE0E7E4F1E0D40101900D929A95CA
:10273000E1F7805DD40118968C931BC09BE0E1E526
:10274000F1E0D40101900D929A95E1F79DEC899FFB
:10275000912D112496959695969520E3290FF401D5
:102760002087990F292F220F220F920F891B805D3E
:10277000818740E0B4018DE494E00E94782D6DE003
:102780008DE494E00E94702D8FE0D7011D928A9510
:10279000E9F7E1ECF0E080818F778083670100E06A
:1027A00010E08DE494E00E945B2D0F5F1F4FF60157
:1027B00081936F018DE494E00E943A2D882311F4F7
:1027C0000C949F220E30110561F70C94312698016C
:1027D000112314F420E030E03327121613060CF016
:1027E0004AC002C02EE030E061E080E090E047E3C4
:1027F00051E070E0F701E80FF91FA081A53461F402
:10280000A2E3B1E001911D910113672F4A175B0705
:10281000C9F7059661112FC001968217930754F3EB
:1028200051E080E090E060E0F701E80FF91F40819F
:102830004F3471F4E8EAF0E0EC0FFD1FE80FF91FE8
:1028400040814B3411F00C9425250296511113C090
:1028500001968217930744F3D7018C918E3359F078
:10286000F70131962E0D3F1D03C081918E3319F073
:102870002E173F07D1F7E1ECF0E08081806880837C
:10288000A7968FADA797882311F40C9437258091D4
:102890008C04882311F40C94AF224CE854E0FE0120
:1028A000EA59FF4FDA018D91AD01811105C0908188
:1028B000992311F40C942925E415F50511F40C94D1
:1028C0002B2531969F0121503109D9019C918917FF
:1028D00049F30C94AF2247E954E0FE01EA59FF4F57
:1028E000DA018D91AD01811105C09081992311F418
:1028F0000C942D25E415F50511F40C942F25319633
:102900009F0121503109D9019C91891749F3809188
:10291000A204882311F40C94372522EA34E0DE0166
:10292000AA59BF4FF90181919F01811105C09C9166
:10293000992311F40C943125A415B50511F40C94C8
:1029400033251196FD0131979081891759F30C9425
:1029500037258091970481110C9416228091A2044E
:1029600081110C941622E2961FAEE297BE016A59BD
:102970007F4F8DEA94E00E94763184E08093E206F6
:102980000C94B72280819FEB980F903210F4805EF8
:10299000808331962E173F07A9F761E080E090E031
:1029A0004DEC51E070E0A1E0B0E0AC0FBD1FA80F0E
:1029B000B91FEC91EE3669F4E3ECF1E00D91119161
:1029C0000113672FE417F507C9F70A9661110C94F4
:1029D000872501968431910534F3CE51DF4FE8818C
:1029E000F981C25ED04080819FEB980F903210F445
:1029F000805E808331962E173F07A9F761E080E063
:102A000090E04AED51E070E0A1E0B0E0AC0FBD1FF6
:102A1000A80FB91FEC91EF3669F4EEECF1E00D91DF
:102A200011910113672FE417F507C9F70C9661118F
:102A30000C94A92501968431910534F3CE51DF4FD2
:102A4000E881F981C25ED04080819FEB980F90327F
:102A500010F4805E808331962E173F07A9F761E05E
:102A600080E090E041EE51E070E0A1E0B0E0AC0F1A
:102A7000BD1FA80FB91FEC91EE3669F4EBEDF1E044
:102A80000D9111910113672FE417F507C9F7069609
:102A900061110C943F2501968431910534F3CE5198
:102AA000DF4FA881B981C25ED0408C919FEB980F17
:102AB000903210F4805E8C93CE51DF4FE881F98123
:102AC000C25ED0403196CE51DF4FF983E883C25EBB
:102AD000D0402E173F0719F761E080E090E02BEE21
:102AE00031E070E0A1E0B0E0AC0FBD1FA80FB91F4E
:102AF0004C91443669F4E2EEF1E05D91419154135A
:102B0000672FE217F307C9F7099661110C94632543
:102B100001968431910534F30C94C22204E12CE037
:102B20004CEE51E0BE016F5F7F4F8DE494E00E9458
:102B3000AE0981110C944A2327E049EF51E0BE0110
:102B40006F5F7F4F8DE494E00E94AE0981110C9479
:102B50006A2324E041E052E0BE016F5F7F4F8DE4C5
:102B600094E00E94AE0981110C94962324E046E083
:102B700052E0BE016F5F7F4F8DE494E00E94AE098A
:102B800081110C94C6232FE04BE052E0BE016F5F31
:102B90007F4F8DE494E00E94AE0981110C941024C3
:102BA00025E04BE152E0BE016F5F7F4F8DE494E082
:102BB0000E94AE0981110C94D2222CE041E252E035
:102BC000BE016F5F7F4F8DE494E00E94AE098111DA
:102BD0000C9416220C942023FFEF20E732E0F150F2
:102BE00020403040E1F700C0000089E0EDE8F1E06E
:102BF000D50101900D928A95E1F7C50109960E94D1
:102C0000763182E2D50153968C93539718968C9324
:102C1000189754961C9240E0B5018DE494E00E9410
:102C2000782D6DE08DE494E00E94702D8FE0F4012A
:102C300011928A95E9F7E1ECF0E080818F7780834B
:102C4000640100E010E08DE494E00E945B2D0F5FD2
:102C50001F4FD6018D936D018DE494E00E943A2DB3
:102C6000882311F40C9439240E30110561F70C946B
:102C700041269801112314F420E030E03327121686
:102C800013060CF049C002C02EE030E061E080E0A5
:102C900090E047E351E070E0F401E80FF91FA081F4
:102CA000A53461F4A2E3B1E001911D910113672FF6
:102CB0004A175B07C9F7059661112EC00196821766
:102CC000930754F351E080E090E060E0F401E80FF6
:102CD000F91F40814F3471F4E8EBF0E0EC0FFD1F79
:102CE000E80FF91F40814B3411F00C94D725029660
:102CF000511112C001968217930744F3F4018081A9
:102D00008E3351F03196280D391D03C081918E33D9
:102D100019F0E217F307D1F740E066E272E08DE4C4
:102D200094E00E94782D6AE18DE494E00E94702D79
:102D30006DE08DE494E00E94702D81E08093540555
:102D40000C9416228F899FEC980F943008F027C1BD
:102D50009BE0E6E3F2E0D50101900D929A95E1F750
:102D6000D50118968C93BE01645F7F4FC5010B9609
:102D70000E94763182E2F501858B828786E0E1E46C
:102D8000F2E0D501569601900D928A95E1F741E067
:102D9000B5018DE494E00E94D708882309F4FFC0B0
:102DA000FE01EA53FF4F8FE0DF011D928A95E9F79C
:102DB000ECE8F4E0CC51DF4FF983E883C45ED04007
:102DC000F1E3CE51DF4FF883C25ED0400F2EF1EC1D
:102DD0006F2E712CF02D8CE0E0E0F1E0D401019039
:102DE0000D928A95E1F7C851DF4FA881B981C85E7D
:102DF000D040E3E01D92EA95E9F7D501E2E31D92A8
:102E0000EA95E9F7D3018C918F778C93CE51DF4F00
:102E10002881C25ED040F401208740E0B4018DE4F7
:102E200094E00E94782D650100E010E08DE494E0CC
:102E30000E945B2D0F5F1F4FD6018D936D018DE4B6
:102E400094E00E943A2D882311F40C944924013314
:102E5000110561F70C9449248191823211F40C948C
:102E60005824E215F305C1F724C08191823221F084
:102E70002E163F06D1F71DC0F5018081803361F029
:102E8000319680E090E003C08F30910539F00196D3
:102E900021912033C9F702C080E090E0B501680FAE
:102EA000791FDB011A961C92CE018A539F4F0E9414
:102EB0007631CA53DF4F8881C65CD040882359F0F1
:102EC000BE016A537F4FCC51DF4F88819981C45E28
:102ED000D0400E947631CE51DF4FB881C25ED040E3
:102EE000BF5FCE51DF4FB883C25ED040CC51DF4FC1
:102EF000E881F981C45ED0403B96CC51DF4FF98325
:102F0000E883C45ED040B43309F065CF6091E20637
:102F1000FBE06F9FB00111246F577B4FDB018C9159
:102F2000882311F40C941622BFEFE0E7F2E0B150D1
:102F3000E040F040E1F700C0000089E0EDE8F1E09A
:102F4000D50101900D928A95E1F7C50109960E947D
:102F5000763182E2D50153968C93539718968C93D1
:102F6000189754961C9241E0B5018DE494E00E94BC
:102F7000D70840E067E472E08DE494E00E94782D89
:102F80006AE18DE494E00E94702D6DE08DE494E0A0
:102F90000E94702D81E0809354050C94162260915C
:102FA000E206BBE06B9FB00111246F577B4FFB0122
:102FB0008081882311F40C941622FFEF20E732E081
:102FC000F15020403040E1F700C0000089E0EDE81A
:102FD000F1E0D50101900D928A95E1F7C5010996BE
:102FE0000E94763182E2D50153968C9353971896BE
:102FF0008C93189754961C9241E0B5018DE494E0AF
:103000000E94D70840E06AE572E08DE494E00E94F7
:10301000782D6AE18DE494E00E94702D6DE08DE4DE
:1030200094E00E94702D81E0809354050C94162248
:103030006091E206BBE06B9FB00111246F577B4F9C
:10304000FB018081882311F40C941622FFEF20E706
:1030500032E0F15020403040E1F700C0000089E04C
:10306000EDE8F1E0D50101900D928A95E1F7C501F7
:1030700009960E94763182E2D50153968C9353973C
:1030800018968C93189754961C9240E0B5018DE4E5
:1030900094E00E94782D6DE08DE494E00E94702D04
:1030A0008FE0F40111928A95E9F7E1ECF0E080817C
:1030B0008F778083640100E010E08DE494E00E944B
:1030C0005B2D0F5F1F4FD6018D936D018DE494E052
:1030D0000E943A2D882311F40C9463240E301105BC
:1030E00061F70C9450269801112314F420E030E08D
:1030F0003327121613060CF049C002C02EE030E050
:1031000061E080E090E047E351E070E0F401E80F17
:10311000F91FA081A53461F4A2E3B1E001911D91F2
:103120000113672F4A175B07C9F7059661112EC077
:1031300001968217930754F351E080E090E060E03D
:10314000F401E80FF91F40814F3471F4E8EBF0E02F
:10315000EC0FFD1FE80FF91F40814B3411F00C9468
:10316000DB250296511112C001968217930744F392
:10317000F40180818E3351F03196280D391D03C042
:1031800081918E3319F0E217F307D1F740E062E343
:1031900071E08DE494E00E94782D6AE18DE494E082
:1031A0000E94702D6DE08DE494E00E94702D81E00E
:1031B000809354050C941622FFEF20E732E0F15083
:1031C00020403040E1F700C0000089E0EDE8F1E088
:1031D000D50101900D928A95E1F7C50109960E94EB
:1031E000763182E2D50153968C93539718968C933F
:1031F000189754961C9240E0B5018DE494E00E942B
:10320000782D6DE08DE494E00E94702D8FE0F40144
:1032100011928A95E9F7E1ECF0E080818F77808365
:10322000640100E010E08DE494E00E945B2D0F5FEC
:103230001F4FD6018D936D018DE494E00E943A2DCD
:10324000882311F40C9473240E30110561F70C944B
:103250005F269801112314F420E030E03327121682
:1032600013060CF049C002C02EE030E061E080E0BF
:1032700090E047E351E070E0F401E80FF91FA0810E
:10328000A53461F4A2E3B1E001911D910113672F10
:103290004A175B07C9F7059661112EC00196821780
:1032A000930754F351E080E090E060E0F401E80F10
:1032B000F91F40814F3471F4E8EBF0E0EC0FFD1F93
:1032C000E80FF91F40814B3411F00C94DF25029672
:1032D000511112C001968217930744F3F4018081C3
:1032E0008E3351F03196280D391D03C081918E33F4
:1032F00019F02E173F07D1F740E06FE572E08DE43B
:1033000094E00E94782D6AE18DE494E00E94702D93
:103310006DE08DE494E00E94702D81E0809354056F
:103320000C94162290E19093DE0680538093DF0682
:103330006091E206FBE06F9FB00111246F577B4F55
:10334000DB018C91882311F40C941622BFEFE0E787
:10335000F2E0B150E040F040E1F700C0000089E049
:10336000EDE8F1E0D50101900D928A95E1F7C501F4
:1033700009960E94763182E2D50153968C93539739
:1033800018968C93189754961C9240E0B5018DE4E2
:1033900094E00E94782D6DE08DE494E00E94702D01
:1033A0008FE0F40111928A95E9F7E1ECF0E0808179
:1033B0008F778083640100E010E08DE494E00E9448
:1033C0005B2D0F5F1F4FD6018D936D018DE494E04F
:1033D0000E943A2D882311F40C9483240E30110599
:1033E00061F70C946E269801112314F420E030E06C
:1033F0003327121613060CF049C002C02EE030E04D
:1034000061E080E090E047E351E070E0F401E80F14
:10341000F91FA081A53461F4A2E3B1E001911D91EF
:103420000113672F4A175B07C9F7059661112EC074
:1034300001968217930754F351E080E090E060E03A
:10344000F401E80FF91F40814F3471F4E8EBF0E02C
:10345000EC0FFD1FE80FF91F40814B3411F00C9465
:10346000E3250296511112C001968217930744F387
:10347000F40180818E3351F03196280D391D03C03F
:1034800081918E3319F02E173F07D1F740E064E7A2
:1034900072E08DE494E00E94782D6AE18DE494E07E
:1034A0000E94702D6DE08DE494E00E94702D81E00B
:1034B00080935405BBC76091E206FBE06F9FB001AB
:1034C00011246F577B4FDB018C91882309F4AEC721
:1034D000BFEFE0E7F2E0B150E040F040E1F700C0BC
:1034E000000089E0EDE8F1E0D50101900D928A95A8
:1034F000E1F7C50109960E94763182E2D501539623
:103500008C93539718968C93189754961C9241E07D
:10351000B5018DE494E00E94D70840E0CA51DF4F26
:103520006881C65ED040C951DF4F7881C75ED04008
:103530008DE494E00E94782D6AE18DE494E00E948D
:10354000702D6DE08DE494E00E94702D81E08093F9
:1035500054056CC790E29093DE0680538093DF069B
:103560006091E206BBE06B9FB00111246F577B4F67
:10357000FB018081882309F459C7FFEF20E732E07F
:10358000F15020403040E1F700C0000089E0EDE854
:10359000F1E0D50101900D928A95E1F7C5010996F8
:1035A0000E94763182E2D50153968C9353971896F8
:1035B0008C93189754961C9241E0B5018DE494E0E9
:1035C0000E94D70840E066E872E08DE494E00E9433
:1035D000782D6AE18DE494E00E94702D6DE08DE419
:1035E00094E00E94702D81E0809354051FC7609184
:1035F000E206BBE06B9FB00111246F577B4FFB01CC
:103600008081882309F412C7FFEF20E732E0F150F0
:1036100020403040E1F700C0000089E0EDE8F1E033
:10362000D50101900D928A95E1F7C50109960E9496
:10363000763182E2D50153968C93539718968C93EA
:10364000189754961C9241E0B5018DE494E00E94D5
:10365000D70840E0CA51DF4F6881C65ED040C951EB
:10366000DF4F7881C75ED0408DE494E00E94782DD2
:103670006AE18DE494E00E94702D6DE08DE494E0A9
:103680000E94702D81E080935405D0C69DE0E5E94D
:10369000F2E0D40101900D929A95E1F7F401808750
:1036A00040E0B4018DE494E00E94782D6DE08DE45B
:1036B00094E00E94702D8FE0D5011D928A95E9F764
:1036C000E1ECF0E080818F778083650100E010E01D
:1036D0008DE494E00E945B2D0F5F1F4FF6018193F4
:1036E0006F018DE494E00E943A2D882311F40C942C
:1036F00093240E30110561F70C947D269801112357
:1037000014F420E030E03327121613060CF04CC0FE
:1037100002C02EE030E061E080E090E047E351E05D
:1037200000E0F501E80FF91F7081753461F4A2E340
:10373000B1E011917D911713602F4A175B07C9F70C
:103740000596611133C001968217930754F351E037
:1037500080E090E060E0F501E80FF91F40814F3410
:1037600071F4E6E7F0E0EC0FFD1FE80FF91F408170
:103770004B3411F00C94E7250296511118C00196B4
:103780008217930744F3D5018C918E3381F0F501B4
:1037900031962A0D3B1D03C081918E3341F02E17C7
:1037A0003F07D1F7712C03C0712C01C0712C772019
:1037B00009F4FDC0FE01EA53FF4F8FE0DF011D92C7
:1037C0008A95E9F7ECE8F4E0CC51DF4FF983E88320
:1037D000C45ED040F1E3CE51DF4FF883C25ED040EB
:1037E0000F2EF1EC6F2E712CF02D8CE0E0E0F1E06B
:1037F000D40101900D928A95E1F7C851DF4FA8815D
:10380000B981C85ED040E3E01D92EA95E9F7D501A1
:10381000E2E31D92EA95E9F7D3018C918F778C93BF
:10382000CE51DF4F2881C25ED040F401208740E0B6
:10383000B4018DE494E00E94782D650100E010E071
:103840008DE494E00E945B2D0F5F1F4FD6018D9396
:103850006D018DE494E00E943A2D882311F40C94BC
:10386000A2240133110561F70C94A22481918232C4
:1038700011F40C94B2242E163F06C1F724C0819196
:10388000823221F02E163F06D1F71DC0F50180814E
:10389000803369F0319660E070E003C06F307105ED
:1038A00041F06F5F7F4F81918033C1F702C060E0CC
:1038B00070E06A0D7B1DDB011A961C92CE018A53C3
:1038C0009F4F0E947631CA53DF4F8881C65CD0403B
:1038D000882359F0BE016A537F4FCC51DF4F888156
:1038E0009981C45ED0400E947631CE51DF4FB881BD
:1038F000C25ED040BF5FCE51DF4FB883C25ED040C2
:10390000CC51DF4FE881F981C45ED0403B96CC5169
:10391000DF4FF983E883C45ED040B43309F065CF4C
:103920006091E206FBE06F9FB00111246F577B4F5F
:10393000DB018C91882309F479C5BFEFE0E7F2E061
:10394000B150E040F040E1F700C0000089E0EDE850
:10395000F1E0D50101900D928A95E1F7C501099634
:103960000E94763182E2D50153968C935397189634
:103970008C93189754961C9241E0B5018DE494E025
:103980000E94D70840E062EA72E08DE494E00E9471
:10399000782D6AE18DE494E00E94702D6DE08DE455
:1039A00094E00E94702D81E0809354053FC56091A2
:1039B000E206BBE06B9FB00111246F577B4FFB0108
:1039C0008081882309F432C5FFEF20E732E0F1500F
:1039D00020403040E1F700C0000089E0EDE8F1E070
:1039E000D50101900D928A95E1F7C50109960E94D3
:1039F000763182E2D50153968C93539718968C9327
:103A0000189754961C9241E0B5018DE494E00E9411
:103A1000D70840E06AE572E08DE494E00E94782DDA
:103A20006AE18DE494E00E94702D6DE08DE494E0F5
:103A30000E94702D81E080935405F8C46091E206E5
:103A4000BBE06B9FB00111246F577B4FFB0180815E
:103A5000882309F4EBC4FFEF20E732E0F150204067
:103A60003040E1F700C0000089E0EDE8F1E0D50169
:103A700001900D928A95E1F7C50109960E94763171
:103A800082E2D50153968C93539718968C9318978E
:103A900054961C9241E0B5018DE494E00E94D70851
:103AA00040E062E371E08DE494E00E94782D6AE1E9
:103AB0008DE494E00E94702D6DE08DE494E00E940E
:103AC000702D81E080935405B1C40091E20610E0AE
:103AD00088E595E00E945D086C018BE0809FB00155
:103AE000819F700D11246F577B4FFB0180818823CC
:103AF00009F49CC4FFEF20E732E0F1502040304051
:103B0000E1F700C0000089E0EDE8F1E0D5010190A7
:103B10000D928A95E1F7C50109960E94763182E2FD
:103B2000D50153968C93539718968C931897549667
:103B30001C9241E0B5018DE494E00E94D70840E07A
:103B4000B6018DE494E00E94782D6DE08DE494E060
:103B50000E94702D40E0BE016B527F4F8DE494E0D7
:103B60000E94782D6AE18DE494E00E94702D6DE052
:103B70008DE494E00E94702D81E08093540556C43A
:103B80000091E20610E088E595E00E945D086C0176
:103B90008BE0809FB001819F700D11246F577B4F88
:103BA000FB018081882309F441C4FFEF20E732E064
:103BB000F15020403040E1F700C0000089E0EDE81E
:103BC000F1E0D50101900D928A95E1F7C5010996C2
:103BD0000E94763182E2D50153968C9353971896C2
:103BE0008C93189754961C9241E0B5018DE494E0B3
:103BF0000E94D70840E0B6018DE494E00E94782D41
:103C00006DE08DE494E00E94702D40E065EB72E081
:103C10008DE494E00E94782D6AE18DE494E00E94A6
:103C2000702D6DE08DE494E00E94702D81E0809312
:103C30005405FCC3BFEFE0E7F2E0B150E040F040D4
:103C4000E1F700C0000089E0EDE8F1E0D501019066
:103C50000D928A95E1F7C50109960E94763182E2BC
:103C6000D50153968C93539718968C931897549626
:103C70001C9240E0B5018DE494E00E94782D6DE047
:103C80008DE494E00E94702D8FE0F40111928A95EA
:103C9000E9F7E1ECF0E080818F778083640100E058
:103CA00010E08DE494E00E945B2D0F5F1F4FD60162
:103CB0008D936D018DE494E00E943A2D882309F4E0
:103CC0005AC60E30110569F70C948C269801112301
:103CD00014F420E030E03327121613060CF048C02D
:103CE00002C02EE030E061E080E090E047E351E088
:103CF00070E0F401E80FF91FA081A53461F4A2E39C
:103D0000B1E001911D910113672F4A175B07C9F7B5
:103D1000059661112DC001968217930754F351E067
:103D200080E090E060E0F401E80FF91F40814F343B
:103D300069F4E8EBF0E0EC0FFD1FE80FF91F40819C
:103D40004B3409F048C70296511112C001968217F0
:103D500093074CF3F40180818E3351F03196280D96
:103D6000391D03C081918E3319F02E173F07D1F70B
:103D700040E066EC72E08DE494E00E94782D6AE108
:103D80008DE494E00E94702D6DE08DE494E00E943B
:103D9000702D81E08093540549C3FFEF20E732E0A6
:103DA000F15020403040E1F700C0000089E0EDE82C
:103DB000F1E0D50101900D928A95E1F7C5010996D0
:103DC0000E94763182E2D50153968C9353971896D0
:103DD0008C93189754961C9240E0B5018DE494E0C2
:103DE0000E94782D6DE08DE494E00E94702D8FE0AC
:103DF000F40111928A95E9F7E1ECF0E080818F7788
:103E00008083640100E010E08DE494E00E945B2D6B
:103E10000F5F1F4FD6018D936D018DE494E00E94DA
:103E20003A2D882309F4B5C50E30110569F782C70C
:103E30009801112314F420E030E033271216130602
:103E40000CF048C002C02EE030E061E080E090E07D
:103E500047E351E070E0F401E80FF91FA081A534B9
:103E600061F4A2E3B1E001911D910113672F4A179C
:103E70005B07C9F7059661112DC00196821793075C
:103E800054F351E080E090E060E0F401E80FF91FA6
:103E900040814F3469F4E8EBF0E0EC0FFD1FE80FD0
:103EA000F91F40814B3409F099C60296511112C096
:103EB0000196821793074CF3F40180818E3351F001
:103EC0003196280D391D03C081918E3319F02E17BC
:103ED0003F07D1F740E06DED72E08DE494E00E9481
:103EE000782D6AE18DE494E00E94702D6DE08DE400
:103EF00094E00E94702D81E08093540597C28DE478
:103F000094E00E945B2D0F5F1F4FD6018D936D01D2
:103F10008DE494E00E943A2D882309F448C50E30C0
:103F2000110569F714C79801112314F420E030E05B
:103F30003327121613060CF079C202C02EE030E0CF
:103F400061E080E090E047E351E070E0F401E80FC9
:103F5000F91FA081A53461F4A2E3B1E001911D91A4
:103F60000113672FA417B507C9F7059661115EC243
:103F700001968217930754F351E080E090E060E0EF
:103F8000F401E80FF91F40814F3469F4E8EBF0E0E9
:103F9000EC0FFD1FE80FF91F40814B3409F021C6DB
:103FA0000296511143C20196821793074CF3F40114
:103FB00080818E3309F43AC23196280D391D04C030
:103FC00081918E3309F432C22E173F07C9F72EC2F2
:103FD000FFEF20E732E0F15020403040E1F700C031
:103FE000000089E0EDE8F1E0D50101900D928A959D
:103FF000E1F7C50109960E94763182E2D501539618
:104000008C93539718968C93189754961C9240E073
:10401000B5018DE494E00E94782D6DE08DE494E08C
:104020000E94702D8FE0F40111928A95E9F7E1EC7E
:10403000F0E080818F778083640100E010E08DE400
:1040400094E00E945B2D0F5F1F4FD6018D936D0191
:104050008DE494E00E943A2D882309F4B6C40E3012
:10406000110569F781C69801112314F420E030E0AE
:104070003327121613060CF048C002C02EE030E0C1
:1040800061E080E090E047E351E070E0F401E80F88
:10409000F91FA081A53461F4A2E3B1E001911D9163
:1040A0000113672FA417B507C9F7059661112DC035
:1040B00001968217930754F351E080E090E060E0AE
:1040C000F401E80FF91F40814F3469F4E8EBF0E0A8
:1040D000EC0FFD1FE80FF91F40814B3409F084C538
:1040E0000296511112C00196821793074CF3F40106
:1040F00080818E3351F03196280D391D03C0819196
:104100008E3319F02E173F07D1F740E060EE72E0D2
:104110008DE494E00E94782D6AE18DE494E00E94A1
:10412000702D6DE08DE494E00E94702D81E080930D
:1041300054057CC1FFEF20E732E0F15020403040D1
:10414000E1F700C0000089E0EDE8F1E0D501019061
:104150000D928A95E1F7C50109960E94763182E2B7
:10416000D50153968C93539718968C931897549621
:104170001C9240E0B5018DE494E00E94782D6DE042
:104180008DE494E00E94702D8FE0F40111928A95E5
:10419000E9F7E1ECF0E080818F778083640100E053
:1041A00010E08DE494E00E945B2D0F5F1F4FD6015D
:1041B0008D936D018DE494E00E943A2D882309F4DB
:1041C00012C40E30110569F7DCC59801112314F4EF
:1041D00020E030E03327121613060CF048C002C06E
:1041E0002EE030E061E080E090E047E351E070E0F5
:1041F000F401E80FF91FA081A53461F4A2E3B1E056
:1042000001911D910113672F4A175B07C9F70596A6
:1042100061112DC001968217930754F351E080E09D
:1042200090E060E0F401E80FF91F40814F3469F439
:10423000E8EBF0E0EC0FFD1FE80FF91F40814B3475
:1042400009F0D5C40296511112C001968217930746
:104250004CF3F40180818E3351F03196280D391DD5
:1042600003C081918E3319F02E173F07D1F740E03C
:10427000BE016B527F4F8DE494E00E94782D6AE17D
:104280008DE494E00E94702D6DE08DE494E00E9436
:10429000702D81E080935405C9C08330910509F0E9
:1042A000BDC0109257051092560580918C0488234A
:1042B00009F4BCC0FFEF20E732E0F150204030406D
:1042C000E1F700C0000089E0EDE8F1E0D5010190E0
:1042D0000D928A95E1F76CE874E0C50109960E9499
:1042E000763182E2D50153968C93539718968C932E
:1042F000189754961C9240E0B5018DE494E00E941A
:10430000782D6DE08DE494E00E94702D8FE0F70130
:1043100011928A95E9F7E1ECF0E080818F77808354
:10432000670100E010E08DE494E00E945B2D0F5FD8
:104330001F4FD6018D936D018DE494E00E943A2DBC
:10434000882309F45EC30E30110569F727C598016B
:10435000112314F420E030E03327121613060CF07A
:1043600048C002C02EE030E061E080E090E047E32A
:1043700051E070E0F701E80FF91FA081A53461F466
:10438000A2E3B1E001911D910113672FA417B507B6
:10439000C9F7059661112DC001968217930754F352
:1043A00051E080E090E060E0F701E80FF91F408104
:1043B0004F3469F4E8EAF0E0EC0FFD1FE80FF91F55
:1043C00040814B3409F016C40296511112C0019677
:1043D000821793074CF3F70180818E3351F03196A9
:1043E0002E0D3F1D03C081918E3319F0E217F307A4
:1043F000D1F740E06DEE72E08DE494E00E94782DFC
:104400006AE18DE494E00E94702D6DE08DE494E00B
:104410000E94702D81E08093540508C0079731F405
:1044200010925705109256051092E60688E595E021
:104430000E949A08882379F01092EB068091E30697
:10444000882311F40C94E91081E08093E8068093AE
:10445000E4060C94E9108091E30681110C94E910B4
:1044600081E08093E7060C94E910F701E00FF11F5B
:104470001082E1ECF0E0808180688083D7018C912C
:1044800081110C9443110C946F12F701E00FF11F8E
:104490001082E1ECF0E0808180688083F701808108
:1044A00081110C94F8110C944B12FE01E00FF11FD6
:1044B0001182112314F400E010E0112710161106E8
:1044C00014F40C94F5120C945913E1ECF0E0808193
:1044D000806880830C944014E1ECF0E08081806877
:1044E00080830C944014FE01E60FF71F108A6D5F65
:1044F0007F4F21E030E02C0F3D1F620F731FCE0174
:104500008A599F4F0E94763180E3A7968FAFA79775
:10451000E1961FAEE197EFEFFFEFEC0FFD1FEC0D03
:10452000FD1D1082B301CE0101960E94763180916B
:104530004E058A3010F00C949E130C949113F701E1
:10454000E00FF11F1082E1ECF0E080818068808351
:10455000D7018C9181110C94E7130C943B1480913A
:104560009704882311F40C9487140C946B149E0107
:104570002B5E3F4FCE51DF4FE881F981C25ED040C4
:104580000C94C21404E12DE040E053E0BE016F5FE3
:104590007F4F8DE494E00E94AE09782E81112EC0E9
:1045A0000C948E158DE0EEE0F3E0DE01AB52BF4FD0
:1045B00001900D928A95E1F780E1EBE1F3E0CA51B9
:1045C000DF4FA881C65ED040C951DF4FB881C75EBA
:1045D000D04001900D928A95E1F781E08093E30647
:1045E0006091E206BBE06B9FB00111246F577B4FD7
:1045F000FB018081882309F419CF9CCD8DE0EEE08A
:10460000F3E0DE01AB52BF4F01900D928A95E1F7C6
:1046100080E1EBE1F3E0CA51DF4FA881C65ED040F4
:10462000C951DF4FB881C75ED04001900D928A9585
:10463000E1F78F859FEC980F933008F427C8FEC9E7
:104640008DE0EEE0F3E0DE01AB52BF4F01900D9242
:104650008A95E1F780E1EBE1F3E0CA51DF4FA881F1
:10466000C65ED040C951DF4FB881C75ED0400190CF
:104670000D928A95E1F76091E206FBE06F9FB00131
:1046800011246F577B4FDB018C91882309F4CECE28
:104690000C94EC158DE0EEE0F3E0DE01AB52BF4F81
:1046A00001900D928A95E1F780E1EBE1F3E0CA51C8
:1046B000DF4FA881C65ED040C951DF4FB881C75EC9
:1046C000D04001900D928A95E1F78091E306811127
:1046D000FCC956CA8DE0EEE0F3E0DE01AB52BF4FFD
:1046E00001900D928A95E1F780E1EBE1F3E0CA5188
:1046F000DF4FA881C65ED040C951DF4FB881C75E89
:10470000D04001900D928A95E1F780E38093DE0618
:104710006091E206BBE06B9FB00111246F577B4FA5
:10472000FB018081882309F481CE84CA8DE0EEE00C
:10473000F3E0DE01AB52BF4F01900D928A95E1F795
:1047400080E1EBE1F3E0CA51DF4FA881C65ED040C3
:10475000C951DF4FB881C75ED04001900D928A9554
:10476000E1F71092E4061092E80681E08093E606F5
:104770006091E206FBE06F9FB00111246F577B4F01
:10478000DB018C91882309F451CE07CB8DE0EEE05C
:10479000F3E0DE01AB52BF4F01900D928A95E1F735
:1047A00080E1EBE1F3E0CA51DF4FA881C65ED04063
:1047B000C951DF4FB881C75ED04001900D928A95F4
:1047C000E1F781E494E5F5019183808384E490E04E
:1047D000938382836CE874E0C50103960E9476316E
:1047E0008BE3D5011D968C931D971E961C9240E07D
:1047F000B5018DE494E00E94782D6DE08DE494E0A5
:104800000E94702D8FE0F40111928A95E9F7E1EC96
:10481000F0E080818F778083640100E010E06FCB4F
:104820008DE0EEE0F3E0DE01AB52BF4F01900D9260
:104830008A95E1F780E1EBE1F3E0CA51DF4FA8810F
:10484000C65ED040C951DF4FB881C75ED0400190ED
:104850000D928A95E1F76091E206FBE06F9FB0014F
:1048600011246F577B4FDB018C91882309F4DECD37
:10487000AFCBF401E00FF11F1082E1ECF0E080819A
:1048800080688083F401808181110C9439160C9426
:104890008C16F501E00FF11F1082D3018C91806816
:1048A0008C93F5018081823219F031960C942C178B
:1048B000D5011F968C91823211F40C943C17F501AE
:1048C00070960C943517F401E00FF11F1082E1ECA3
:1048D000F0E0808180688083F401808181110C94F4
:1048E00073180C94C618F401E00FF11F1082E1EC6C
:1048F000F0E0808180688083D4018C9181110C94D8
:1049000029190C947C19F401E00FF11F1082E1ECDD
:10491000F0E0808180688083F401808181110C94B3
:10492000F3190C94461AF501E00FF11F1082E1EC27
:10493000F0E0808180688083D5018C9181110C9496
:104940007E1B35C8F501E00FF11F1082F301808155
:1049500080688083D5018C91823221F0F5013196F7
:104960000C94361CF5018785823211F40C94461C98
:1049700070960C943F1CF401E00FF11F1082E1ECE3
:10498000F0E0808180688083D4018C9181119EC980
:10499000EFC9F401E00FF11F1082E1ECF0E080813B
:1049A00080688083F4018081811142CA93CAF40136
:1049B000E00FF11F1082E1ECF0E0808180688083DD
:1049C000D4018C918111AFCA31CDF401E00FF11FF8
:1049D0001082E1ECF0E0808180688083F4018081C6
:1049E000811141CB92CBF401E00FF11F1082E1EC79
:1049F000F0E0808180688083D4018C918111E5CBC7
:104A000036CCF701E00FF11F1082E1ECF0E080817D
:104A100080688083F7018081811199CCEACC02966D
:104A2000562F0C9484110296562F0C943912B6010D
:104A3000A1E0B0E0AC0FBD1FAC0DBD1D8C918A3064
:104A400011F00C9443130C945F130296562F0C94A0
:104A5000281481E009C081E007C082E005C082E03F
:104A600003C083E001C083E08093E20680CD109212
:104A7000E20680918C048111D9CC0C94A9148DE0AC
:104A8000EEE0F3E0DE01AB52BF4F01900D928A954C
:104A9000E1F780E1EBE1F3E0CA51DF4FA881C65EA8
:104AA000D040C951DF4FB881C75ED04001900D9210
:104AB0008A95E1F78B859FEC980F993010F40C9450
:104AC00092190C945B1A8DE0EEE0F3E0DE01AB523C
:104AD000BF4F01900D928A95E1F780E1EBE1F3E0A1
:104AE000CA51DF4FA881C65ED040C951DF4FB8819F
:104AF000C75ED04001900D928A95E1F78B859FECBF
:104B0000980F993010F40C94AA1A0C94F71A8DE0AF
:104B1000EEE0F3E0DE01AB52BF4F01900D928A95BB
:104B2000E1F780E1EBE1F3E0CA51DF4FA881C65E17
:104B3000D040C951DF4FB881C75ED04001900D927F
:104B40008A95E1F78E89803211F00C9418180C9434
:104B5000A2168DE0EEE0F3E0DE01AB52BF4F019014
:104B60000D928A95E1F780E1EBE1F3E0CA51DF4F66
:104B7000A881C65ED040C951DF4FB881C75ED04022
:104B800001900D928A95E1F71092E3061092E906E2
:104B90006091E206FBE06F9FB00111246F577B4FDD
:104BA000DB018C91882309F441CC0C94DC1802962B
:104BB000562F0C947A160296562F0C94B41802961F
:104BC000562F0C946A190296562F0C94341A02969A
:104BD000562F0C94BF1B0296562FB8C80296562F1C
:104BE00067C90296562FDFC90296562F7CCA0296D5
:104BF000562F2BCB0296562FEACBF7011686E1EC07
:104C0000F0E0808180688083D7018C91882311F443
:104C10000C946F120C944E11F7011686E1ECF0E043
:104C2000808180688083D7018C91882311F40C9453
:104C30004B120C940312A6961FAEA69704E610E042
:104C40000C94F51266246394712C6C0E7D1E6C0C12
:104C50007D1CF30180818A3011F00C946D130C944B
:104C60008213D7011E961C921E97E1ECF0E0808122
:104C7000806880838C91882311F40C943B140C94ED
:104C8000F213F4011686E1ECF0E080818068808305
:104C9000D4018C91882311F40C948C160C94441636
:104CA000F4011686E1ECF0E0808180688083D40115
:104CB0008C91882311F40C94C6180C947E18F4017E
:104CC0001686E1ECF0E0808180688083D4018C91CD
:104CD000882311F40C947C190C943419F401168671
:104CE000E1ECF0E0808180688083D4018C9188239E
:104CF00011F40C94461A0C94FE19F5011686E1EC99
:104D0000F0E0808180688083D5018C91882311F444
:104D10000C94D71C0C94891BF4011686E1ECF0E08E
:104D2000808180688083D4018C91882309F420C815
:104D30000C94711EF4011686E1ECF0E0808180682D
:104D40008083D4018C91882309F4C4C87CC8F40101
:104D50001686E1ECF0E0808180688083D4018C913C
:104D6000882309F463CBEAC8F4011686E1ECF0E08D
:104D7000808180688083D4018C91882309F4C5C91F
:104D80007DC9F4011686E1ECF0E0808180688083C3
:104D9000D4018C91882309F46ACA22CAF7011686C5
:104DA000E1ECF0E0808180688083D7018C918823DA
:104DB00009F41FCBD7CA2F923F924F925F926F9206
:104DC0007F928F929F92AF92BF92CF92DF92EF929B
:104DD000FF920F931F93CF93DF93CDB7DEB7CF55DD
:104DE000D1090FB6F894DEBF0FBECDBF60E875E203
:104DF0008DEE96E0F9D560E875E28DE494E0F4D5A7
:104E000082E087B9559A5D9A10928C0410929704AB
:104E10001092A2041092AD04109250051092520507
:104E20001092540510925305109257051092560592
:104E300060E875E28DE494E0B0D5FE01EF5AFF4FD3
:104E40001FE0DF01812F1D928A95E9F781E48083BD
:104E500084E581838BE2828393E4938383E5848377
:104E6000958386839DE3978392E2908727E4218749
:104E700082878DE48387948740E0BF018DE494E0CE
:104E800037D66DE08DE494E02BD6FE013196DF013C
:104E90001D921A95E9F7A1ECB0E08C918F778C9375
:104EA0007F0100E010E08DE494E005D60F5F1F4F16
:104EB000F70181937F018DE494E0DCD5882309F428
:104EC00043C20E30110579F784C2A801112314F4EE
:104ED00040E050E05527141615060CF052C002C0F1
:104EE0004EE050E011E080E090E067E371E000E028
:104EF000E1E0F0E0EC0FFD1FE80FF91F2081253401
:104F000061F4A2E3B1E031912D913213102FA61775
:104F1000B707C9F70596111134C001968417950794
:104F20003CF331E080E090E060E0E1E0F0E0EC0FA5
:104F3000FD1FE80FF91F20812F3469F4E2E0F0E053
:104F4000EC0FFD1FE80FF91F20812B3409F038C248
:104F50000296311116C001968417950734F38981A2
:104F60008E3379F0FE01329681E090E08C0F9D1F28
:104F7000480F591F03C081918E3319F04E175F07F8
:104F8000D1F740E067E771E08DE494E0B1D56DE0E2
:104F90008DE494E0A5D5FE0131968FE0DF011D92EE
:104FA0008A95E9F7A1ECB0E08C918F778C937F0123
:104FB00000E010E08DE494E07ED50F5F1F4FF70115
:104FC00081937F018DE494E055D5882309F4C9C10C
:104FD0000E30110579F708C2A801112314F440E03E
:104FE00050E05527141615060CF052C002C04EE0D2
:104FF00050E011E080E090E067E371E000E0E1E084
:10500000F0E0EC0FFD1FE80FF91F2081253461F45B
:10501000A2E3B1E031912D913213102F6A177B0773
:10502000C9F70596111134C00196841795073CF312
:1050300031E080E090E060E0E1E0F0E0EC0FFD1FA7
:10504000E80FF91F20812F3469F4E2E0F0E0EC0F63
:10505000FD1FE80FF91F20812B3409F0B4C102961F
:10506000311116C001968417950734F389818E3368
:1050700079F0FE01329681E090E08C0F9D1F480F81
:10508000591F03C081918E3319F04E175F07D1F776
:1050900040E061E871E08DE494E02AD56DE08DE4B4
:1050A00094E01ED5FE0131968FE0DF011D928A95B6
:1050B000E9F7A1ECB0E08C918F778C937F0100E051
:1050C00010E08DE494E0F7D40F5F1F4FF701819358
:1050D0007F018DE494E0CED4882309F44FC10E30D3
:1050E000110579F78CC1A801112314F440E050E0B8
:1050F0005527141615060CF052C002C04EE050E0C1
:1051000011E080E090E067E371E000E0E1E0F0E0D2
:10511000EC0FFD1FE80FF91F2081253461F4A2E395
:10512000B1E031912D913213102FA617B707C9F7AF
:105130000596111134C00196841795073CF331E0B0
:1051400080E090E060E0E1E0F0E0EC0FFD1FE80FB0
:10515000F91F20812F3469F4E2E0F0E0EC0FFD1F2D
:10516000E80FF91F20812B3409F030C1029631116C
:1051700016C001968417950734F389818E3379F030
:10518000FE01329681E090E08C0F9D1F480F591F61
:1051900003C081918E3319F04E175F07D1F7FE01DE
:1051A000EE5BFF4F8FE0DF011D928A95E9F70F2E2E
:1051B000FCE86F2EF4E07F2EF02D0F2EF1E33F2E52
:1051C000F02D0F2EF3E02F2EF02D2E01BFE34B0E0E
:1051D000511CE154F1094F010F2EF1ECAF2EB12C0F
:1051E000F02D6E01F2E3CF0ED11C8CE0E0E0F1E097
:1051F000DE01D39601900D928A95E1F7D201E22D5E
:105200001D92EA95E9F7D401E2E31D92EA95E9F7E8
:10521000D5018C918F778C933BAE40E0BE016D5CE5
:105220007F4F8DE494E064D4740100E010E08DE4DD
:1052300094E041D40F5F1F4FF70181937F018DE40C
:1052400094E018D4882309F4A6C00133110579F736
:10525000A2C08191823209F4ACC0CE16DF06C9F734
:1052600028C08191823221F0CE16DF06D1F721C00D
:105270008981803371F0FE01329660E070E003C0F6
:105280006F30710541F06F5F7F4F81918033C1F7BF
:1052900002C060E070E0EBE0F0E0EC0FFD1FE60F15
:1052A000F71F1082680D791DCE018E5B9F4F0E9403
:1052B000763123968FAD2397882331F0BE016E5B44
:1052C0007F4FC3010E9476313394FBE06F0E711C57
:1052D00084E338128ACF88E595E00E9443088CEC7D
:1052E00096E0FCD21092E4061092E5061092E306D6
:1052F0001092E9061092EA0611E01093E606109269
:10530000E2061092EC061092EB068FEE8093DC061C
:105310008AEA8093DD061092E1061092E006109270
:10532000DF061092DE068CEC96E0E2D186EE99EF75
:1053300090938500809384001092800085E0809394
:10534000810010936F0066C0FE01E00FF11F118213
:10535000E1ECF0E080818068808389818111B5CDA6
:1053600010CEFE01E00FF11F1182E1ECF0E0808130
:1053700080688083898181112FCE8ACEFE01E00F63
:10538000F11F1182E1ECF0E08081806880838981E7
:105390008111A9CE04CFF401E00FF11F1082D501D5
:1053A0008C9180688C938981823219F0FE0132964B
:1053B00050CF8889823209F45BCFFE01719651CFBC
:1053C0000296362FC8CD0296362F4CCE0296362F37
:1053D000D0CE1F86E1ECF0E08081806880838981F7
:1053E000882309F4CECD7CCD1F86E1ECF0E08081EE
:1053F000806880838981882309F44ACEF8CD1F868E
:10540000E1ECF0E08081806880838981882309F461
:10541000C6CE74CEC15ADF4F0FB6F894DEBF0FBEB2
:10542000CDBFDF91CF911F910F91FF90EF90DF9053
:10543000CF90BF90AF909F908F907F906F905F9034
:105440004F903F902F9008958CEC96E031C10895D5
:10545000F8948FE284B981E58CBD82E085B981E062
:1054600085B9789408956EBD0DB407FEFDCF8EB555
:105470000895BF92CF92DF92EF92FF920F931F9306
:10548000CF93DF937C016A01122FF89485E38A950C
:10549000F1F70000F89415B8603549F0605EC70177
:1054A000E2DFB82E8AE18A95F1F700C008C060EA11
:1054B000C701D9DFB82E85E38A95F1F700001123E3
:1054C00071F0E6011150012F10E00F5F1F4F0C0D1E
:1054D0001D1D6991C701C7DFC017D107D1F782E051
:1054E00085B985E38A95F1F7000078948B2DDF91DB
:1054F000CF911F910F91FF90EF90DF90CF90BF90D1
:105500000895FF920F931F93CF93DF9300D000D0A5
:1055100000D0CDB7DEB78C01F8942FEF8BED95E07E
:10552000215080409040E1F700C00000FF24F39438
:10553000F98221E0AE014F5F5F4F61E0C80199DF62
:10554000F98221E0AE014F5F5F4F62E0C80191DF59
:105550000F2EF3E0FF2EF02DF98221E0AE014F5F18
:105560005F4F63E0C80185DFF98221E0AE014F5F44
:105570005F4F65E0C8017DDF8FE2898321E0AE01E6
:105580004F5F5F4F64E0C80174DF86E2898321E0EA
:10559000AE014F5F5F4F66E0C8016BDF85E1898335
:1055A00085E38A8387E18B8385EC8C8382E38D831B
:1055B00025E0AE014F5F5F4F6AE0C8015ADF25E08A
:1055C000AE014F5F5F4F60E1C80153DF86E0898322
:1055D00021E0AE014F5F5F4F61E1C8014ADF78947F
:1055E00026960FB6F894DEBF0FBECDBFDF91CF91E8
:1055F0001F910F91FF900895BF92CF92DF92EF928B
:10560000FF920F931F93CF93DF937C016A01122FB8
:1056100085E38A95F1F70000F89415B88AE08A9539
:10562000F1F700C0603541F0C7011DDFB82E85E3FA
:105630008A95F1F7000008C061E6C70114DFB82EB3
:1056400085E38A95F1F70000112399F0E6011150E6
:10565000012F10E00F5F1F4F0C0D1D1D6FEFC701D5
:1056600002DF899385E38A95F1F70000C017D1071F
:10567000A9F782E085B985E38A95F1F7000078946F
:105680008B2DDF91CF911F910F91FF90EF90DF90C5
:10569000CF90BF900895CF93DF93EC01D9DECE0178
:1056A00030DF1B821A8219821882DF91CF91089510
:1056B0000895CF93DF93EC0185E38A95F1F700001D
:1056C00015B885E38A95F1F7000067E2CE01CBDEDD
:1056D00085E38A95F1F7000060E7CE01C4DE85E33B
:1056E0008A95F1F7000082E085B9DF91CF910895A6
:1056F000CF93DF9300D0CDB7DEB7F8942FE02983A6
:1057000021E0AE014F5F5F4F60E0B3DE15B88FE37D
:105710009FE10197F1F700C0000078940F900F907F
:10572000DF91CF910895EF92FF920F931F93CF9344
:10573000DF938C01EB0115B861E695DE85E38A9570
:10574000F1F700007E0186E0E80EF11C6FEFC80162
:105750008ADE899385E38A95F1F70000EC16FD0651
:10576000A9F782E085B985E38A95F1F70000DF911A
:10577000CF911F910F91FF90EF900895CF92DF92FC
:10578000FF920F931F93CF93DF9300D0CDB7DEB777
:105790008C016B01F89421E0AE014F5F5F4F67E130
:1057A0002BDF8981982F9170F92E80FD05C0B601FD
:1057B000C801B9DF78941DC015B88AE08A95F1F761
:1057C00000C062EEC8014FDE82E085B9C80171DF1A
:1057D00081E085B98FE39FE10197F1F700C00000F8
:1057E00026E0A60160E5C80107DF15B87894FF241C
:1057F000F3948F2D0F900F90DF91CF911F910F9108
:10580000FF90DF90CF9008951F93CF93DF93EC012B
:1058100015B86FEF28DE182F81E085B98FE19EE47F
:105820000197F1F700C00000CE0143DF16FD04C070
:1058300081E085B980E001C081E0DF91CF911F91C7
:105840000895CF93DF9300D0CDB7DEB71A821982C7
:1058500022E0298321E0AE014F5F5F4F6DE109DE59
:105860000F900F90DF91CF910895CF92DF92EF923A
:10587000FF920F931F93CF93DF937B01142FF89424
:1058800025E32A95F1F7000015B8D82EC92E68EA4D
:10589000EADD85E38A95F1F70000112379F0E7014D
:1058A0001150012F10E00F5F1F4F0E0D1F1D69914A
:1058B0008D2D9C2DD8DDC017D107C9F782E085B9A1
:1058C00025E32A95F1F700007894DF91CF911F919D
:1058D0000F91FF90EF90DF90CF900895CF93DF93DB
:1058E000EC01D9DECE01ADDF1B821A82198218824B
:1058F000DF91CF9108950F931F93CF93DF93EC0126
:1059000046E0B3DF8E01065F1F4FB801CE0136DFE0
:10591000C801DF91CF911F910F9108953099FECF6B
:10592000309937C081EA91E00197F1F700C000009B
:1059300020E030E080E0E0E090E061E070E0ABEC9F
:10594000B0E01197F1F700C00000309B08C0AB0138
:10595000022E02C0440F551F0A94E2F701C04E2FD9
:10596000842BABECB0E01197F1F700C000002F5F83
:105970003F4F2830310519F7B5E3BA95F1F700002C
:10598000309B09C0E7E7F1E03197F1F700C0000074
:10599000089580E0089580E00895CB01A0E0B0E094
:1059A000880F991FAA1FBB1F880F991FAA1FBB1F13
:1059B0009C01AD01220F331F441F551F220F331FBF
:1059C000441F551F60E074E284EF90E044D42150FE
:1059D00031093093C5002093C40088E18093C10051
:1059E00086E08093C2000895FC01AB019B01220F69
:1059F000232F221F330B3195ABE6B3E054D482AB97
:105A000013AABA01CF01C9CF0895FC0183A98B3035
:105A100078F582A9823099F018F4813031F023C0F2
:105A20008330A1F08430C9F01EC02FEF86E791E0EB
:105A3000215080409040E1F700C0000014C08FE585
:105A40009AEE0197F1F700C000000DC08FE39CE9CA
:105A50000197F1F700C0000006C08FE59DE60197B1
:105A6000F1F700C0000083A98F5F83AB80E0089549
:105A700081E008958091C000882394F40DC02081B6
:105A8000222364F0A7E5B2E01197F1F700C000000F
:105A90000197A9F780E0089581E0089581E00895D5
:105AA00087E592E00197F1F700C0000087EC90E0F5
:105AB000E0ECF0E0E4CF0F931F93CF93DF938C01E2
:105AC000C0ECD0E08881882324F0C8019EDF8111DA
:105AD000F9CF8091C600DF91CF911F910F9108956A
